:040000008A15942C9D
:0E000600213083120313FD00FD0B07280800B4
:100014000F3083120313FC004730FD00FD0B102842
:0A002400FC0B10280000000008008B
:06002E00000000000800C4
:1000340083160313D11B21288312871223288312CA
:1000440087168316511B2928831207122B28831223
:1000540007168316D11A3128831287113328831285
:1000640087158316511A3928831207113B288312E6
:10007400071566183F28071440280710871417200F
:1000840087108316D1194928831287124B288312AB
:100094008716831651195128831207125328831285
:1000A40007168316D1185928831287115B288312E7
:1000B4008715831651186128831207116328831248
:1000C400071566186728071468280710871417206F
:0E00D4008710661C6F280A2070280320080081
:0E00E200F201F101F001F801F3010030080015
:1000F000FB14FB1F8228FF30F300F200F100F00038
:08010000FA0DF20CFF300800BB
:100108007B15FB1F8E280130F300F201F101F0018D
:08011800FA0DF20CFF300800A3
:08012000FA1FF2130030080081
:1001280083120313661083165008D1001A20661430
:020138000800BD
:0E013A008312031364088A0063088200080021
:10014800A1017208031DB9287108F2007008F100B6
:10015800F001A1157208031DB9287108F200F10118
:10016800A111211672080319C7282108F302031DDB
:10017800031CCB280310F21BCF28F00DF10DF20D54
:10018800F30BBF28CB280130FC007120D2280230A5
:0E019800FC008420D2280430FC0090200800D7
:1001A6007C180929FC18DA287C192829D328A101EA
:1001B6007208031DFA287108F2007008F100780829
:1001C600F000F801A1157208031DFA287108F20063
:1001D6007008F100F001A11121167208031DFA281A
:1001E6007108F200F101A115720803191C292108F2
:1001F600F302031D031C20290310F21B0929F80D25
:10020600F00DF10DF20DF30B002920297B1B701C5C
:100216002429F81F2429F00A0319F10A0319F20AFE
:10022600031D2429F20CF10CF00CF30A03192829FA
:1002360024290130FC0071202B290230FC00842087
:100246002B290430FC0090202B290830FC00782054
:04025600000008009C
:10025A0083120313FB01FA01F901F801A001730DDE
:10026A00F80D7408F8027508031C750FF902760870
:10027A00031C760FFA027708031C770FFB020001B2
:10028A00031C0130A002F30D0730FC00730DF80DBA
:10029A00F90DFA0DFB0DA00D7408731C6629F802FE
:1002AA007508031C750FF9027608031C760FFA020B
:1002BA007708031C770FFB020001031C0130A00220
:1002CA007729F80775080318750FF90776080318D0
:1002DA00760FFA0777080318770FFB070001031850
:1002EA000130A007F30DFC0B4B29720DF80DF90D27
:1002FA00FA0DFB0DA00D7408731C9529F8027508F8
:10030A00031C750FF9027608031C760FFA027708A8
:10031A00031C770FFB020001031C0130A002A6296F
:10032A00F80775080318750FF90776080318760F8A
:10033A00FA0777080318770FFB0700010318013043
:10034A00A007F20D0730FC00720DF80DF90DFA0D39
:10035A00FB0DA00D7408721CC429F8027508031C51
:10036A00750FF9027608031C760FFA027708031C48
:10037A00770FFB020001031C0130A002D529F80700
:10038A0075080318750FF90776080318760FFA0728
:10039A0077080318770FFB07000103180130A0073D
:1003AA00F20DFC0BA929710DF80DF90DFA0DFB0DD3
:1003BA00A00D7408721CF329F8027508031C750F46
:1003CA00F9027608031C760FFA027708031C770FE6
:1003DA00FB020001031C0130A002042AF807750879
:1003EA000318750FF90776080318760FFA077708C6
:1003FA000318770FFB07000103180130A007F10D5E
:10040A000730FC00710DF80DF90DFA0DFB0DA00D6A
:10041A007408711C222AF8027508031C750FF90268
:10042A007608031C760FFA027708031C770FFB0283
:10043A000001031C0130A002332AF80775080318CB
:10044A00750FF90776080318760FFA077708031865
:10045A00770FFB07000103180130A007F10DFC0B11
:10046A00072A700DF80DF90DFA0DFB0DA00D740891
:10047A00711C512AF8027508031C750FF9027608D7
:10048A00031C760FFA027708031C770FFB020001A0
:10049A00031C0130A002622AF80775080318750FB9
:1004AA00F90776080318760FFA0777080318770F03
:1004BA00FB07000103180130A007F00D0730FC000C
:1004CA00700DF80DF90DFA0DFB0DA00D7408701CD6
:1004DA00802AF8027508031C750FF9027608031CB6
:1004EA00760FFA027708031C770FFB020001031C40
:1004FA000130A002912AF80775080318750FF90749
:10050A0076080318760FFA0777080318770FFB07A0
:10051A00000103180130A007F00DFC0B652A7018C2
:10052A00A42A7408F80775080318750FF9077608DE
:10053A000318760FFA0777080318770FFB070800E6
:06054A00FB15FF30080064
:1005500083160313CB01CD01CE011030CF00043040
:100560004E020318DD2AF030831288008030F0003C
:100570007008083E840083164F09F0007008800060
:10058000172017200F3083120805F000700883161B
:10059000CC0070080319D72A4D08CB004C0803196A
:1005A000D52ACC0CCC13CB0ACE2A0430CE00CF0DEA
:1005B0004F100430CD07CE0AAF2A4B08F0000800D8
:1005C000F22A803083160313CB00052BC030CB00FA
:1005D000052B9430CB00052BD430CB00052B80307D
:1005E000CB00052B831603134B08013A0319E12AAC
:1005F0004B08023A0319E62A4B08033A0319E92A81
:100600004B08043A0319EC2AEF2A4C03F0004B087C
:10061000F0077008CB007008D1001A20661083160E
:10062000CE014E084D07840000080319202B4E0808
:100630004D0784000008D00094208316CE0A112BA9
:060640008312661408009D
:10064600831203137008F8007108F0007208F100B5
:100656007308F200F301FB01FC019E30F300FA017E
:080666000230FC00D320080063
:10066E0083120313F30173082C3EF20073088316F2
:10067E004B07F0004C080318013EF100700883127E
:10068E00E3007108E4009D208A110A12F00072083E
:10069E008400700880007208840000080319592B2A
:0A06AE00F30A3A2B2C30F00008008C
:1006B800831203132230FC00F801F901FA01FB014F
:1006C800FC030319922B0310FB0CFA0CF90CF80C21
:1006D800F30CF20CF10CF00C031C642BFC03031953
:1006E800842B7408F80775080318750FF90776083E
:1006F8000318760FFA0777080318770FFB07682B9C
:100708007408F80775080318750FF90776080318B1
:0E071800760FFA0777080318770FFB07080023
:1007260083120313F101F20183164C087202031DB2
:100736009E2B4B0871020318A62B00000000F10A3D
:080746000319F20A972B0800C9
:10074E008312031372087606A100F801F9017308EB
:10075E007702031CCA2B7708FD007308F7007D088B
:10076E00F3007608FD007208F6007D08F2007508A9
:10077E00FD007108F5007D08F1007408FD00700899
:10078E00F4007D08F00077080319432C7208FA0074
:10079E00F217F61777087302F7000319FD2B0830CE
:1007AE007702031CF32BF7007408F9007508F400A8
:1007BE007608F500F60108307702031CF32BF700DC
:1007CE007408F9007508F400F50108307702031C6F
:1007DE00F32B7A08F200432C77080319FD2B031034
:1007EE00F60CF50CF40CF90CF70BF62BA11F0A2CDA
:1007FE00F909F409F509F609F90A0319F40A0319B6
:10080E00F50A0319F60A7908F80774080318740F25
:10081E00F00775080318750FF10776080318760FA1
:10082E00F207A11B232C031C332CF20CF10CF00C41
:10083E00F80CF30F332C3F2C0318372CF809F00962
:10084E00F109F209F80A0319F00A0319F10A03195A
:10085E00F20A8030FA063B2C0130FC00D320452CE6
:10086E000230FC00D320452C0430FC00A420452C83
:10087E000830FC007820452C0030FC0000000800F9
:10088E0083120313FD01F801700803190034740676
:10089E00FA00FA1BFD09FB01F41F572CF409F40AA8
:1008AE00F01F5B2CF009F00A70087404FA00FA1BB2
:1008BE007F2C7408F802F00D700DF80D7408F8070F
:1008CE00F00D0630FC00700DF80D74087018F8026B
:1008DE00701CF807F00DFC0B6A2C701CF8077B18C7
:1008EE008D2CFD1F0034F009F00AF809F80A0034C7
:1008FE00F41F8A2CF01B872C7008F800F001782C5E
:10090E00F001F00A0034F009FB0A602CF80A7408B2
:10091E007802031D782CF801F00AF01F782CFF34B2
:02092E000800BF
:10093000063083120313FD00FD0B9C2C0000080001
:1009400083120313FB017308031D77080319F72CA7
:1009500072087606FA007708F3077E30031CB42C81
:10096000F3020318FA2CB72CF302031CFD2C7208B7
:10097000F8007108FC007008FD00F817F617031066
:10098000F201F101F0011830A1007D1CD12C740896
:10099000F00775080318750FF10776080318760F2E
:1009A000F207F20CF10CF00CF80CFC0CFD0C03102F
:1009B000A10BC52CF21BE12CF80DF00DF10DF20D81
:1009C000F3037B1B701CF32CF81FF32CF00A0319A4
:1009D000F10A0319F20A031DF32CF20CF10CF00CCE
:1009E000F30A0319FA2CFA1FF2130030FF2C01301E
:1009F0007120FF2C02307820FF2C0430842000006E
:020A00000800EC
:100A0200831603134B08F2007208F100F20A4C0835
:100A1200F000CC0A700884000008F000710884001D
:100A2200700880007108840000080319192D052D33
:060A32004B08F000080073
:100A380083120313FA017308031D7A147708031D40
:100A4800FA147A080319682D033A0319332D7A1812
:100A5800302DF61F662D642DF21F642D662D720849
:100A68008039FA00F21376088039F6137A060319EA
:100A7800412D7A080319642D662D7708730203192E
:100A8800482D031C5C2D602D7608720203194F2D2A
:100A9800031C5C2D602D750871020319562D031C6B
:100AA8005C2D602D740870020319682D0318602DE1
:100AB800FA080319662D642DFA080319642D662DAA
:100AC80003140800031008000314031508000800A5
:0C0AD800831203138030F606A7230800E9
:100AE400003083120313F4000030F5001430F600D4
:100AF4008330F7002208F0002308F1002408F200F4
:100B04002508F3001C25013003180030F00070089C
:100B140003199B2DBE308316CB000E30CC00372337
:100B240070088316CD000230CB000130CC00E022E7
:100B3400BD2E0030F4000030F5001430F600833090
:100B4400F7002208F0002308F1002408F200250829
:100B5400F3001C250130031C0030F0007008031959
:100B6400DA2D2208F4002308F5002408F6002508ED
:100B7400F7003330F0003330F1004730F2008330B7
:100B8400F3001C250130031C0030F0007008031929
:100B9400DA2DB0308316CB000E30CC00372370082A
:100BA4008316CD000230CB000130CC00E022BD2EF4
:100BB4000030F4000030F5004830F6008330F700D0
:100BC4002208F0002308F1002408F2002508F300AD
:100BD4001C250130031C0030F00070080319192E85
:100BE4002208F4002308F5002408F6002508F7007D
:100BF4003330F0003330F1006F30F2008330F30013
:100C04001C250130031C0030F00070080319192E54
:100C1400D5308316CB000E30CC00372370088316F2
:100C2400CD000230CB000130CC00E022BD2E0030DC
:100C3400F4000030F5007030F6008330F70022082D
:100C4400F0002308F1002408F2002508F3001C2515
:100C54000130031C0030F00070080319582E2208DC
:100C6400F4002308F5002408F6002508F7009A305C
:100C7400F0009930F1000B30F2008430F3001C25B1
:100C84000130031C0030F00070080319582E903016
:100C94008316CB000E30CC00372370088316CD00AA
:100CA4000230CB000130CC00E022BD2E0030F40035
:100CB4000030F5000C30F6008430F7002208F00014
:100CC4002308F1002408F2002508F3001C25013054
:100CD400031C0030F00070080319972E2208F4005A
:100CE4002308F5002408F6002508F7009A30F000E0
:100CF4009930F1001F30F2008430F3001C250130DC
:100D0400031C0030F00070080319972EA0308316DE
:100D1400CB000E30CC00372370088316CD00023090
:100D2400CB000130CC00E022BD2E0030F4000030B6
:100D3400F5002030F6008430F7002208F000230884
:100D4400F1002408F2002508F3001C250130031CDF
:100D54000030F00070080319BD2E70308316CB00EC
:100D64000E30CC00372370088316CD000230CB0040
:080D74000130CC00E022080070
:100D7C00831203137408003A031DD92E7508003A28
:100D8C00031DD92E7608003A031DD92E7708003A98
:100D9C00031DD92EFF30F000FF30F1007F30F20040
:100DAC00FF30F300742F8312031377080319682F95
:100DBC00730803196B2F720876068039FA00F21744
:100DCC00F617A1017208F8007108FC007008FD000C
:100DDC007408FD027508031C750FFC027608031CD1
:100DEC00760FF802F801FC01FD01031C042F03101F
:100DFC00F20CF10CF00CF80C0130A1007708F302A6
:100E0C00031C0E2F7E302107F30703186E2F132FB0
:100E1C007E302107F307031C712F1830FA07FD0DE4
:100E2C00FC0DF80DF00DF10DF20DA10D7408F00292
:100E3C007508031C750FF1027608031C760FF2027D
:100E4C00760DA104211C2C2F7D14372F7408F0076C
:100E5C0075080318750FF10776080318760AF20760
:100E6C007D10FA031F307A05031D152F7B1B7D1C8B
:100E7C005E2F0310F00DF10DF20DA10D7408F002B0
:100E8C007508031C750FF1027608031C760FF2022D
:100E9C00760D21040139FD070318FC0A0319F80A21
:100EAC00031D5E2FF80CFC0CFD0CF30A03196E2FBE
:100EBC00FA1FF8137808F2007C08F1007D08F000A6
:100ECC000030732F0130A522732F02307120732F45
:0E0EDC0004307820732F0830842000000800B6
:100EEA0083120313E101E201D801D901DA01DB011E
:100EFA00D401D501D601D701D001D101D201D30144
:100F0A008F018E018316061183120611C0308B04DD
:0C0F1A0083160C141030831290000800A5
:100F2600803083120313F0007008083E8400FF30FF
:040F3600800008002F
:100F3A00AF2F803083120313EA00C22FC030EA00B9
:100F4A00C22F9430EA00C22FD430EA00C22F803078
:100F5A00EA00C22F831203136A08013A03199E2F6B
:100F6A006A08023A0319A32F6A08033A0319A62F3B
:100F7A006A08043A0319A92FAC2F6B03F0006A0818
:100F8A00F0077008EA00661470088316D1001A2068
:0E0F9A0066106C088316D1001A206614080039
:100FA800A82270088312EA000F300805F000031920
:0C0FB800DF2F9824D82F6A08F0000800F2
:100FC4009D208A110A128000840AE30A0319E40AA4
:080FD400F003031DE22F0800E9
:1010000083160313C601C701C801C901CA018312AF
:101010006A088316C20083126B088316C30083120A
:101020006C088316C40083126D088316C50045083A
:10103000FF3A031D25284408FF3A031D25284308CD
:10104000FF3A031D25284208FF3A031D3328831267
:101050006E088316CB002830CC008A1101258A1532
:101060000330F000B82A0130C000C41F442880308B
:101070004406F0007008C400C00AC70A83126E0854
:1010800084002D308000EE0A0030F0008316450603
:10109000031D542870084406031D54287008430695
:1010A000031D54284208003A031D612883126E086C
:1010B0008316CB002630CC008A1101258A15F00159
:1010C000B82A4508FF3A031D6F284408003A031D5B
:1010D0006F284308003A031D6F284208003A031D99
:1010E0007D2883126E088316CB004030CC008A1115
:1010F00001258A154008F000B82A0030F4000030BD
:10110000F5000030F6007F30F7004208F000430899
:10111000F1004408F2004508F3008A111C258A15E5
:10112000013003180030F00070080319B628831648
:101130004208F0004308F1004408F2004508F300BB
:101140000030F4000030F5002030F6008230F70067
:101150008A11A0248A1570088316C2007108C30082
:101160007208C4007308C500CA037D2883160030C6
:10117000F4000030F5002030F6008230F70042081D
:10118000F0004308F1004408F2004508F3008A111A
:101190001C258A150130031C0030F000700803196B
:1011A000F02883164208F0004308F1004408F200DA
:1011B0004508F300CD30F400CC30F5004C30F6009B
:1011C0007B30F7008A11A0248A1570088316C200AC
:1011D0007108C3007208C4007308C500CA0AB628A3
:1011E0008316FF304205F800FF304305F9007F30D9
:1011F0004405FA0000304505FB007808F400790842
:10120000F5007A08F6007B08F700F40DF50DF60DF1
:10121000F70D741000304205F00000304305F10076
:1012200000304405F200FF304505F3007008C200AD
:101230007108C3007208C4007308C5007408420432
:10124000F00075084304F10076084404F2007708C2
:101250004504F3007008C2007108C3007208C4009E
:101260007308C5007F304502F0007008C1000130EE
:10127000C5007008F4004208F0004308F10044087B
:10128000F2004508F300740803194D29F00DF10D23
:10129000F20DF30D7010FF3E44297008C200710872
:1012A000C3007208C4007308C5004508303EF00052
:1012B00083126E08840070088000EE0A8316C70A45
:1012C00080304A06F0008030013A7002031C712918
:1012D0008030063AF00080304A067002031C712903
:1012E0007B2983126E0884002E308000EE0A0130C4
:1012F0008316C600C70A0630C1004108003A031928
:10130000E129C5014208F0004308F1004408F20059
:101310004508F300F00DF10DF20DF30D7010F00D16
:10132000F10DF20DF30D70104208F0074308031899
:10133000430FF10744080318440FF2074508031848
:10134000450FF3077008C2007108C3007208C4009B
:101350007308C5004208F0004308F1004408F20099
:101360004508F300F00DF10DF20DF30D701070084B
:10137000C2007108C3007208C4007308C5004508A4
:10138000303EF00083126E08840070088000EE0A80
:101390008316C70A4608003A031DDF29CA034A0814
:1013A000003A031DDF290130C90083126E08840052
:1013B0002E308000EE0A01308316C600C70AC10332
:1013C0007D294908013A031DE629C703FF3083122E
:1013D0006E07840000082E3A031DF129EE038316E0
:1013E000C70383168030003AF00080304A0670024E
:1013F0000318FC290130C80080304A06F000803014
:10140000003A70020318062A0230C8004A08C100D8
:101410008030093AF00080304A067002031C122A1C
:10142000C80A142A0230C80748084707F100F20129
:101430000318F20A80307206F00080307002031D3B
:10144000242A83126F08710203182F2A83126E0850
:10145000840030308000EE0A8316C70A142A8316EF
:101460004A08003A0319762A83126E088400653010
:101470008000EE0A803083164A06F0008030003A81
:10148000700203184D2A83126E0884002D308000EC
:10149000EE0A83164A08003CCA004A08C1008030A0
:1014A000093AF00080304A0670020318652A0A30B3
:1014B000F4004108F0008A1147248A153030F00703
:1014C0006E08840070088000EE0A0A30F40083166B
:1014D0004108F0008A1147248A157808F00030305E
:1014E000F0076E08840070088000EE0A8316480832
:1014F0004707F0007008C70083126F087002F10000
:1015000071088316C1008030003AF0008030710607
:1015100070020318992A83168030003AF000803058
:10152000410670020318982AC1038312EE038B2A26
:10153000B32A803083164106F0008030003A7002F2
:101540000318B32A831680304106F0008030003A39
:1015500070020318B32AC10A83126E088400303067
:101560008000EE0AA22A83126E0884008001F00136
:02157000080071
:1015720083120313E101E2018F018E010430860020
:101582000A308316CB000030CC008A1193238A15CF
:10159200831286018618CE2ACB2A1014861CD22AE0
:1015A200CF2AFE3090050F08F100F0010E087004FA
:1015B200F5007108F6000030F6046208F3006108D5
:1015C200F200F001F1017508F8007608F900FA015D
:1015D200FB017008F80771080318710FF907720808
:1015E2000318720FFA0773080318730FFB077808C2
:1015F200D8007908D9007A08DA007B08DB0078087D
:10160200D4007908D5007A08D6007B08D70080304C
:10161200F400F501F601F7017808F0007908F1000D
:101622007A08F2007B08F3007408F0027508031CC4
:10163200750FF1027608031C760FF2027708031C7D
:10164200770FF3025730F4000130F500F601F7018D
:101652008A115C238A154030F4001F30F500F60130
:10166200F7018A112D218A157008F4007108F5001E
:101672007208F6007308F700F70CF60CF50CF40C80
:10168200F7137408F0007508F1007608F200770885
:10169200F3008A1123238A157008D0007108D10043
:0A16A2007208D2007308D30008009C
:1016AC00831603138710071007118711071287126F
:1016BC0083128710071087120712871107118A11DE
:1016CC000A208A158A110A208A158A110A208A157D
:1016DC008715071587148A1117208A1587108A1108
:1016EC000A208A1587148A1117208A1587108A11E7
:1016FC000A208A1587148A1117208A1587108A11D7
:10170C000A208A15071187148A1117208A15871049
:10171C008A110A208A1587148A1117208A158710B6
:10172C008711871687148A1117208A1587108A113A
:10173C000A208A158712071587148A1117208A1513
:10174C008710071187148A1117208A1587108A11A0
:10175C000A208A1587148A1117208A1587100715F5
:10176C0087148A1117208A1587108A110A208A1566
:10177C00071187148A1117208A15871087160716E8
:10178C008715071587148A1117208A1587108A1157
:08179C000A208A1566140800FA
:1017A400512C313083120313E0000030DC00003090
:1017B400DD000030DE007F30DF00932C3230E000AB
:1017C4000030DC000030DD000030DE008030DF005F
:1017D400932C3330E0000030DC000030DD0040307A
:1017E400DE008030DF00932C4130E000932C343055
:1017F400E0000030DC000030DD000030DE0081302D
:10180400DF00932C3530E0000030DC000030DD00D8
:101814002030DE008130DF00932C3630E0000030D1
:10182400DC000030DD004030DE008130DF00932C2E
:101834004230E000932C3730E0000030DC00003010
:10184400DD006030DE008130DF00932C3830E000B2
:101854000030DC000030DD000030DE008230DF00CC
:10186400932C3930E0000030DC000030DD00103013
:10187400DE008230DF00932C4330E000932C2A30CA
:10188400E000932C3030E000DC01DD01DE01DF01FB
:10189400932C2330E000932C4430E000932C8312EB
:1018A40003136A08013A0319D32B6A08023A03198D
:1018B400E02B6A08033A0319EB2B6A08043A03196C
:1018C400F62B6A08053A0319F92B6A08063A031934
:1018D400042C6A08073A03190F2C6A08083A0319FA
:1018E4001A2C6A08093A03191D2C6A080A3A0319C2
:1018F400282C6A080B3A0319332C6A080C3A03198A
:101904003E2C6A080D3A0319412C6A080E3A031951
:10191400442C6A080F3A03194B2C6A08103A03192D
:041924004E2C08003D
:10192800E62683120313E801E90156238A11932757
:101938008A1501308316D1008A111A208A150C30B5
:101948008316D1008A111A208A15CA308316CB0053
:101958000E30CC008A1137238A1570088316CD0003
:101968000130CB000130CC008A11E0228A1580308A
:101978008316CB000E30CC008A1137238A157008E5
:101988008316CD000230CB000130CC008A11E02252
:101998008A150130E5008A11D4278A157008E500F8
:1019A80070080319CF2C6508EA00D2236008413A71
:1019B800031D2A2EE801E90101308316D1008A119E
:1019C8001A208A15EE308316CB000730CC008A1116
:1019D80037238A1570088316CD000130CB000130FB
:1019E800CC008A11E0228A158A1175278A156808A1
:1019F800031D462DB9225008F4005108F50052087D
:101A0800F6005308F700F001F101F201F3018A1121
:101A18001C258A15013003180030F00070080319DE
:101A2800452D0030F4000030F5004830F6008530D0
:101A3800F7005008F0005108F1005208F20053086E
:101A4800F3008A11BE268A157008F4007108F500A3
:101A58007208F6007308F7004408F0004508F10022
:101A68004608F2004708F3008A116C258A157008A9
:101A7800C8007108C9007208CA007308CB00013099
:101A8800E800FB2C0B30FB002630FC005D30FD002D
:101A9800FD0B4C2DFC0B4C2DFB0B4C2D00000000BE
:101AA8005F308316CB000E30CC008A1137238A159D
:101AB80070088316CD000130CB000130CC008A11AC
:101AC800E0228A15E701CC01CD01CE01CF016908DA
:101AD800031D2A2E0130E5008A11D4278A157008C3
:101AE800E50070080319702D6508EA00D22330302C
:101AF8006002031CB42D6008393C031CB42D4C084B
:101B0800F0004D08F1004E08F2004F08F3000030D5
:101B1800F4000030F5002030F6008230F7008A111A
:101B2800A0248A155C08F4005D08F5005E08F6003C
:101B38005F08F7008A11A7238A157008CC0071087E
:101B4800CD007208CE007308CF000230EA00670AA1
:101B5800EB006008EC008A119D278A15E70A292EF8
:101B68006008233A031D292E0B30FB002630FC00A9
:101B78005D30FD00FD0BBE2DFC0BBE2DFB0BBE2DFD
:101B8800000000004808F0004908F1004A08F20087
:101B98004B08F3004808F4004908F5004A08F60025
:101BA8004B08F7008A11A0248A157008F400710800
:101BB800F5007208F6007308F7004C08F0004D08AD
:101BC800F1004E08F2004F08F3008A11BE268A156C
:101BD8007008A2007108A3007208A4007308A50089
:101BE80001308316D1008A111A208A15E030831635
:101BF800CB000E30CC008A1137238A157008831663
:101C0800CD000130CB000130CC008A11E0228A15CA
:101C18002208EA002308EB002408EC002508ED0060
:101C2800A030EE000430EF000020013083160313CB
:101C3800CB000630CC00A030CD008A11E0228A15F6
:101C48000130E9008A1172258A156B2DCD2C2B2EB7
:101DCC00223084002E3083120313F0003130E300F4
:0C1DDC000E30E4008A11E2278A1508008E
:100FDC004D346534613473347534723469346E3421
:100FEC006734203448346534693467346834743475
:020FFC000034BF
:081C62000034003400340034AA
:041C6A0030340034DE
:081C6E004E3461344E340034A1
:101C760000340034003400340034003400340034BE
:101C860000340034003400340034003400340034AE
:081C9600003400340034003476
:081C9E0049344E344634003491
:081CA600663466340634803414
:081CAE0000340034003400345E
:081CB600003400340034003456
:101CBE0045346E347434653472342034573465349C
:101CCE00693467346834743428346B346734293497
:021CDE000034D0
:101CE0004F34623465347334693474347934203455
:101CF00063346C34613473347334203433340034DB
:101D00006D34653461347334753472346534203421
:101D10006834653469346734683474342E3400347C
:101D20004F34623465347334693474347934203414
:101D300063346C346134733473342034313400349C
:101D40004F346234653473346934743479342034F4
:101D500063346C346134733473342034323400347B
:101D60004E346F3472346D3461346C3420345734F3
:0C1D70006534693467346834743400341E
:101D7C0055346E3464346534723457346534693494
:081D8C0067346834743400343C
:101D94005034723465347334733420344134203411
:061DA40074346F340034BA
:101DAA004F34763465347234573465346934673461
:061DBA00683474340034AB
:0C1DC00042344D3449343A3420340034AD
:02400E004A2F37
:00000001FF
